:020000040800F2
:1000000008200020910100081B0100081B010008C6
:100010001B0100081B0100081B0100080000000074
:100020000000000000000000000000001B010008AC
:100030001B010008000000001B0100081B01000854
:10004000F0B42448224B0168234E41F004010160C2
:1000500043F67F642149086820F0406008604FF44F
:1000600000550A6842F080620A604FF0005248680A
:1000700020F400504860886820F0406088608868FC
:1000800040F080608860C86820F04060C8603068D8
:10009000401C30608D615C600020986005271F6007
:1000A0004FF47A701F68FF03FCD5401EFAD101207F
:1000B00018608A615C6000279F60052018600A2034
:1000C0001F68FF03FCD5401EFAD101201860DEE74F
:1000D00010E000E03038024000000020000802403C
:1000E00030B4002513E050F8042BD30744BFA9F126
:1000F00001039A18091F042942F8045BFAD2134637
:100100008C0744BF15809B1CC90748BF1D7050F861
:10011000041B0029E7D130BC7047FEE710B5074942
:1001200079441831064C7C44163404E00A68081DF2
:10013000114488470146A142F8D110BD08000000D3
:10014000140000009DFFFFFF0400000000000020DD
:10015000000000000120C046002801D0FFF7DEFFAC
:10016000AFF300800020AFF30080FFF769FF00F0DD
:1001700000F800F001B800000746384600F002F829
:10018000FBE700002021090326311820ABBEF9E768
:100190000548014603B4684680F30988AFF3008040
:0C01A000AFF30080FFF7D6FFA5EDF5FEE1
:04000005080001915D
:00000001FF
